:020000040800F2
:1000000068070020B94000089D3E0008A13E000896
:10001000A33E0008A53E0008A73E0008000000001F
:10002000000000000000000000000000A93E0008E1
:10003000AB3E000800000000AD3E0008AF3E0008E7
:10004000E5400008E9400008ED400008F1400008E4
:10005000F5400008F9400008E33E0008EF3E0008C4
:10006000013F0008E93E0008FB3E0008BF3E0008D3
:10007000C73E0008CF3E0008D93E0008FD400008FA
:100080000141000805410008094100080D41000830
:10009000114100081541000819410008073F0008F8
:1000A000F53E00081D4100082141000825410008D7
:1000B000294100082D410008314100083541000860
:1000C000394100083D410008414100084541000810
:1000D000494100084D4100085141000855410008C0
:1000E0003D3F00085941000800000000293F00087A
:1000F0005D41000861410008BD3E000865410008FF
:10010000694100086D41000871410008754100080F
:10011000794100087D4100088141000885410008BF
:10012000894100088D41000891410008954100086F
:10013000994100089D410008A1410008A54100081F
:1001400000000000000000000000000000000000AF
:10015000A9410008AD410008B1410008B5410008BF
:10016000B9410008BD410008C1410008C54100086F
:10017000C9410008CD410008D1410008000000003D
:10018000D5410008D9410008DD410008E1410008DF
:10019000E5410008E9410008ED410008F14100088F
:1001A000F5410008F9410008FD410008014200083E
:1001B00005420008094200080D42000811420008EB
:1001C00015420008194200081D420008214200089B
:1001D00025420008294200082D420008314200084B
:1001E00035420008394200083D42000841420008FB
:1001F00045420008494200084D42000851420008AB
:1002000055420008594200085D420008614200085A
:1002100065420008694200086D420008714200080A
:1002200075420008794200087D4200080000000085
:100230008142000885420008000000008942000851
:100240008D4200089142000895420008994200083A
:100250009D420008A1420008A5420008A9420008EA
:10026000AD420008B1420008B5420008B94200089A
:10027000BD420008C1420008C5420008000000005D
:10028000C942000800000000CD4200080000000044
:1002900000000000D1420008BFF34F8FDFF8BC2BF5
:1002A00002E01060203020390129FADABFF34F8FC5
:1002B000BFF36F8F704700002DE9FC410026002737
:1002C0008046B8F1030FDFF8785BDFF8780B05F1B3
:1002D000F001DFF8302D35D8DFE808F0020B1525E6
:1002E00011680B26022700F064F82860302068604F
:1002F00028E0116818300C26032700F05AF80D2268
:10030000A867EA671EE013683030022743F0010354
:10031000136016681E2306F001060096009A0D264B
:1003200008604B600EE016684830012746F0010671
:10033000166012680E2602F001020092009B6922EC
:100340008867CA677821402001FB08F100224FF43A
:1003500080636C184FF40031A0604FF40060E260DD
:10036000236103236061A0612046E2612162626231
:10037000A362E262226301F0F9F805EB881000EB5A
:10038000870100F52C70C1F8D042A063204601F02F
:100390001DF80FF66D110FF6E910E163002260649D
:1003A0000021304601F09AFB3046BDE8F64101F0ED
:1003B000B2BB41F001011160126802F0010200922B
:1003C000009970470328DFF8401C70B586B0DFF84D
:1003D0003C4CDFF83C5C00F2BA80DFE800F002330E
:1003E000698C00F0CEF8DFF82C4C43F020030B6052
:1003F0000A6802F020020592059B0D68012345F072
:1004000020050D600968012501F020010591059A7C
:100410000221009301910321049102230295694670
:10042000039301F0B5FB00214FF48043049169462A
:10043000009320460195029501F0AAFB4FF400506D
:10044000009080E00A6842F002020A60086800F04A
:1004500002000590059A0B6843F008030B600868DA
:1004600000F008000590059A0B68204643F004034D
:100470000B600968022301F004010591059A0093BD
:1004800069460122019302920492039301F080FBDA
:100490004FF4006100F05DF8DFF88C0C029201F07F
:1004A00077FB4FF4007069460090DFF8300D4CE0A8
:1004B00000F067F8002400F05AF8802346F0100698
:1004C0000E60096801F0100100F04AF804910391F0
:1004D0006946029201F05CFB082201230092694602
:1004E000019328460494029301F052FB1021284600
:1004F0000091694629E0086840F0100008600A6829
:1005000002F01002059205980B68284600F02FF8BB
:10051000202346F002060E60096801F0020100F097
:100520001FF802920421049102220392694601F00D
:100530002FFB402100F00DF82846029201F028FB25
:100540004FF4805100916946204601F021FB06B02E
:1005500070BD012200910023019269460493704707
:100560000591059A0221009301910122704743F001
:1005700010030B600A6802F010020592059B0E68DA
:100580007047086840F0020008600A6802F0020242
:10059000059205980B682046704710B59AB008A8D8
:1005A0001C2101F007FC0020FFF70CFFDFF8300CE6
:1005B000022204684FF6FF7344F0020404600068EE
:1005C000DFF8204C00F0020000900099DFF8180CD2
:1005D00000F09AF800F0A2F800F08CF80021204614
:1005E0000F911091139114911591129111911891ED
:1005F0001791169119910FA901F044FC00F00DF824
:100600000020FFF759FE0021002000F0C9F8012169
:10061000002000F0F7F81AB010BD3021002347F693
:10062000FF720891099204220A9308A90B932046AD
:100630000D930E930C9301F06EBE18B58FB0012090
:10064000FFF7C0FEDFF8980BDFF8A44B00F04DF881
:1006500041F001010160006800F001000090009984
:10066000DFF8000D00F050F800F058F800F042F804
:100670003021002347F6FF72089109920822FFF704
:10068000D3FF0120FFF718FE0021012000F088F8B9
:100690000121012025E018B58FB00220FFF792FE5E
:1006A000DFF8500BDFF8504B00F01FF841F0040169
:1006B0000160006800F0040000900099DFF86C0C05
:1006C00000F022F800F02AF800F014F8FFF7A5FF78
:1006D0000220FFF7F1FD0021022000F061F8012166
:1006E000022000F08FF810B010BD016802224FF612
:1006F000FF7370472021802201910023039201A9FA
:100700000293204601F098BB626020600021A16046
:100710002046E3602161A16101F0BBBC00214FF4E0
:10072000805206914FF40043079104A90492204699
:10073000059301F0C9BE18B58FB00320FFF742FE44
:10074000DFF89C0ADFF8E84BFFF7CFFF41F4803178
:100750000160006800F4803000900099DFF8080C18
:10076000FFF7D2FFFFF7DAFFFFF7C4FF47F6FF728C
:10077000002330210992089100220A9308A90B93C3
:1007800020460D920E930C9201F0C5FD0320FFF759
:1007900093FD0021032000F003F801210320A0E7CE
:1007A00010B500F062F882F8E011DFF8643827D85D
:1007B000DFE800F0020D181F0029DFF8580819BF04
:1007C00000224FF4804101224FF4804117E00029BC
:1007D000DFF8540919BF00224FF4006101224FF4E1
:1007E00000610CE0002919BF002208210122082124
:1007F00004E000290CBF01220022402118463CE001
:1008000010BD000010B500F030F882F8E1112BD8CF
:10081000DFE800F0020D18210029DFF8F80719BF02
:1008200001224FF4005100224FF400511BE0002937
:10083000DFF8A80919BF01224FF4007100224FF41C
:10084000007110E00029DFF8C80719BF012210214C
:100850000022102107E00029DFF8B0074FF4805193
:100860000CBF0022012208E010BD0446342254438C
:10087000DFF8E03A1A1903287047BDE8104001F08C
:100880006EBA00002DE9F84F04460026032C2546D9
:10089000DFF8AC85B246B14608EB851B4FF48062A9
:1008A000DFF8900A00F29780DFE804F0026D7E8A9C
:1008B000914602680426DFF880AA42F03D020260F9
:1008C000836823F400238360DBF8B0220120906367
:1008D0000F4601210BF52C7001F0E3FD7A11DFF8D2
:1008E0005C1A07EB92600122801141F83500A7EBFA
:1008F000801701EBC500DFF8481A476028020A524A
:100900000F1880223946204600F0BFFA4FF400410C
:100910003846FFF7C1FCB7F8FE0007F5004180221A
:100920000880204600F0B1FA4FF4004107F500407E
:10093000FFF7B2FC802007F500430090394678208D
:10094000524600FB05F708EB070002F061F8DBF800
:10095000B002C16849EA0101C16000212046FFF7E9
:1009600051FF342001224543210018BF012C08EB20
:10097000050080F8E22133D131460BF52C70BDE83B
:10098000F44F01F023BA4FF4746208260260036A40
:100990004FF40069DFF8ACA923F400230362D8F810
:1009A000F0220120D06393E74FF474139146036063
:1009B000826B0426DFF890A922F40022826383E789
:1009C0004FF074624FF400790260036DDFF89CA968
:1009D00023F400230365DBF8B0220120506377E79E
:1009E00031460BF52C70BDE8F44F01F011BB00004F
:1009F00038B50446DFF85C59032C05F5367005F56B
:100A0000567122D8DFE804F002091219006800F0DC
:100A10001AFE042105F52C7005E0406C00F013FE71
:100A2000082105F53C7001F0D3F90EE0086800F0EC
:100A30000AFE042105F54C7005E0C86B00F003FECA
:100A4000002105F55C7001F0FBFA01212046FFF75B
:100A5000D9FE3420302144432C4404F5F27002F0D6
:100A600065F804F5F17000218170017031BD00005E
:100A7000032838B5DFF8D458DFF8C44315D8DFE8C9
:100A800000F002162B42022100F054F8002804BFA7
:100A900094F8E00100284BD0042100F04BF8002826
:100AA00004BF94F8E001012842D0002032BD10219B
:100AB00000F040F828B994F8140228B902F067F958
:100AC00036E0012002F063F9202100F033F800281D
:100AD000EBD194F8140213E0DFF874584FF48071EE
:100AE00000F028F8002804BF94F8480200281FD01E
:100AF0004FF4007100F01EF80028D6D194F8480297
:100B00000128D2D114E01021DFF8640801F021F9A6
:100B1000002804BF94F87C02002809D04FF48041DB
:100B200000F008F8002804BF94F87C020128BCD12A
:100B3000012032BD284601F00CB900002DE9F8462D
:100B40000446342014FB00F0BD4E00272DED068B2B
:100B50003044B0EE408A90F8E211F0EE608AB0EED8
:100B6000419A00F5F275F0EE619A002974D1B5EE64
:100B7000408AF1EE10FA06DAB7EEC80AB0EEC00B02
:100B8000B7EEC08B0121A0B2FFF70AFEA0B2FFF7BB
:100B90006FFF002860D1B7EEC80AB0EEC00BBDEE03
:100BA000C00B4FF6FF7A85ED0B0A4FF0FF39B7EE19
:100BB000000AC5ED089A9FEDA41ADFEDA41A9FED77
:100BC000A32AB4EE408AC9EE819AC8EEA11A89EE32
:100BD000022AF1EE10FA89EEA1AA89EE829A85ED39
:100BE00009AA85ED0A9A3BD1C5F818900220287011
:100BF000C5F814A026E020EE0A0A80EE090A00F0EB
:100C000095FAB1EE400BBDEEC00B85ED020AA86867
:100C100010F1010FA8BFC5F8089095ED020AB8EED3
:100C2000C00A30EE080ABDEEC00A85ED010A686907
:100C3000864203DB6E610321297001E001222A70E4
:100C40000020A861BDEEC80AA0B2BDEC068B10EE74
:100C5000101ABDE8F44615E6BDEC068BBDE8F1863A
:100C60007F1C9FED7F3A00EE107AB8EEC00B9FED2F
:100C7000782B82EE001B83EE0A3AF7EEC18BB7EEBB
:100C8000C30A02F027F9B7EEE81A00F053FABDEEF6
:100C9000C00B85ED050A68694010B0F5803FDFD2D2
:100CA00006EB84119FED6C0A28EE800A574480EE13
:100CB000290AD1F8B002B7EEC00A078502F01AF986
:100CC0003AEE091ABDEEC00BDFED650A6AEE200AA6
:100CD00085ED030AEE6829EEA90A2E6180EE200A4E
:100CE00068EE090AC0EE810AB4EE600AF1EE10FA6D
:100CF000FFF681AF30EEC80ABDEEC00A85E70000FE
:100D000038B500F089F810D003F17804A14208BF8B
:100D100001200AD003F1F005A94208BF022004D047
:100D200003F5B473994208BF032000F06AF81CDC95
:100D300001EBC0014B68002B00DC93E000F073F87E
:100D400012D8DFE800F002060A0E186840F03D00F5
:100D500009E04FF474641C6006E04FF474151D60E4
:100D600002E04FF07460186088E00102DFF8D025DF
:100D7000541848F2FE03E55A55528022214674E089
:100D800038B500F049F810D003F17804A14208BF4B
:100D900001200AD003F1F005A94208BF022004D0C7
:100DA00003F5B473994208BF032000F02AF81CDC55
:100DB00001EBC0014B68002B00DC53E000F033F87E
:100DC00012D8DFE800F002060A0E186840F03D0075
:100DD00009E04FF474641C6006E04FF474151D6064
:100DE00002E04FF07460186048E0DFF8541501EB42
:100DF0000021B1F8FE2001F5004421462280802226
:100E000033E0DFF8381551F830305B1E41F83030F0
:100E100051F83040002C7047DFF83835014600208B
:100E200099420A6870474B685B004B60146864081D
:100E3000640014604B6803285360DFF8F83470478F
:100E400010000020100002400000704200007A44B0
:100E50000000000084D7A7410AD7233968EF00E0DB
:100E60000AD7A339BDE83240C2E500F00EF82046AB
:100E70004FF40041BDE83440FFF70EBA136843F069
:100E80000103136000224A6031BD2DE9F04306469C
:100E90003427084677431146DFF8B824DFF8D454E6
:100EA0004FF00008174407F5F2720024038805EBA1
:100EB00086066FF0004769E000F0AEF80CEB450ED7
:100EC0009569AD006D1C9EFBF5F9D2F814E09569AB
:100ED0000CEB4E0CA4EB0904AD006D1C9CFBF5FE65
:100EE00005FB1ECCC6F810C09569002D05DD002558
:100EF00088441570D561356135601569AC4233DBC6
:100F000034602C46D560D2F818C0C2F808C0D56A43
:100F10006544556000253561032524E0D469641CCF
:100F2000D461D2F80CC0D2F81CE05568AE456446D6
:100F300005D3176194689461346802251570D2F85E
:100F400010E0E64506DA346A012594613468C2F897
:100F50000CE01570D568754506DA946934629468BA
:100F60009461346802251570556903EB650320F818
:100F7000183000EB480330F818E0D2F814C008F13C
:100F800002080EEB6C055D8054615B88884536D2A3
:100F90001578012D04D0E7D3032DBFD08CD3E3E720
:100FA00000F03AF80CEB450E9569AD006D1C9EFB08
:100FB000F5F9D2F814E095690CEB4E0CA4EB09049A
:100FC000AD006D1C9CFBF5FE05FB1ECCC6F810C0E9
:100FD000D2F81CC05568AC4505D3176195693562D8
:100FE00095689561BEE7D2F80CC0A445BCDB956955
:100FF0003562956895610025346064468BE7BDE8ED
:10100000F0830000D8440258E0440258000402581B
:101010000010025800140258D469641CD461946909
:10102000641C946154695569D6F810C0704700007B
:1010300038B504469FED6D1A2DED068B94ED0B0A25
:101040000025D4ED080AB8EEC08AC0EE819A94ED6E
:10105000099AD4ED0A8A6D1C9FEDC70A01EE105A59
:10106000B8EEC11B9FEDBC3B83EE012B80EE090A5D
:10107000B7EEC2ABB7EEC00A01F02CFFB7EECA1A4A
:1010800000F058F8BDEEC00B84ED050A6069401011
:10109000B0F5803FDFD2AF4A9FEDB10AD2F8B0027F
:1010A0002AEE000A691E80EE290A018500F03EF84A
:1010B0009FEDB11A29EE011ABDEEC00B69EEA90A27
:1010C000C0EE819A84ED030A28EE281A79EE281AD8
:1010D00081EE210AF4EE409AF1EE10FA0ADB70EE8E
:1010E000480AFDEEE00AC4ED020ABDEEC00A84ED36
:1010F000060A0FE029EE890A80EE280A00F016F8A9
:10110000B1EE400BBDEEC00B84ED020AFDEEE90A24
:10111000C4ED060AA06810F1010FA4BF4FF0FF3123
:10112000A160BDEC068B31BD000C0258B7EEC00AC1
:1011300001F0E0BE21EE000B9FED905B20EE050B71
:1011400001F0D8BEF8B578220446624381482DEDFF
:10115000028B8CB00E008258B0EE408A55688DED3F
:10116000088A48BF764234210B966143014401F559
:10117000F4773A6A68460992796A0A91FFF758FF4C
:10118000EA0787ED078A0399F960B8694CBF6D1EBD
:10119000AD1E8035A0EB5500B861BA690B98821876
:1011A000521CBA62BA68914205DAB96A029878604C
:1011B0004018386001E006987861711106EB916083
:1011C0005E49801141F83400A6EB8016081D40F8F6
:1011D00034600CB0BDEC028BF1BD00000008025879
:1011E000F0440258C0020020000401400000704298
:1011F00000030020E8440258400300202DE9F04796
:10120000054678266E43DFF84C913420684359F840
:101210000640D4F80080484490F8E401002818BF44
:10122000022800F081802846FFF78CFF216844489F
:1012300000EB05200A0300F5004A03D5074628F411
:10124000002803E05746824648F4002859F8060073
:101250004368DE0715D54368DB07FCD42800354E0C
:1012600014D1354900200A68394600F08BF800F0A7
:101270008CF8206820F011002060316841F03D01B9
:1012800032E09B1E46689E42FCD1E7E7012D0DD15E
:101290002C4802220168012039803946FFF7F5FD0C
:1012A00000F073F820684FF474611AE0022D0BD13E
:1012B000254839460268022000F064F800F065F81D
:1012C00020684FF474110CE0032D0ED127483946E5
:1012D0000268032000F056F800F057F820684FF03D
:1012E000746120F0110020603160C4F800803C1D62
:1012F00034F8020C7E22214620802846FFF7C5FDE7
:10130000FC212046FEF7C8FFB4F8FA0080225146BF
:10131000AAF800002846FFF7B8FD50464FF40041F8
:10132000BDE8F047FEF7B8BFBDE8F0870008004011
:1013300080030020080002403804014030040020EF
:10134000000000243C00014038080040001802580A
:10135000001C0258100000200000000084D7A741A4
:101360000AD72339000001400040014034400140C9
:1013700000200258000400200AD7A339000000C052
:10138000CAA1E53F3A8002227FE504213846FEF7F4
:1013900083BF30B4002513E050F8042BD30744BFBB
:1013A000A9F101039A18091F042942F8045BFAD233
:1013B00013468C0744BF15809B1CC90748BF1D708E
:1013C00050F8041B0029E7D130BC7047F8B504463B
:1013D00001F0C2FD064634B32368DFF8801640F200
:1013E000A94204F13405C918914213D20020022702
:1013F00028706F70196849084900196023681868D7
:10140000C10740F1798001F0A7FD801B0628F5D3C4
:10141000202005E0DFF84866F0188D281FD3402013
:101420002862032169700120F2BDB0F5005F0AD186
:10143000032E00F29280DFE806F00D0A0D02B1F1F2
:10144000C07F7AD106E0022E04D9F61E75D1C801FC
:1014500040F1838040210122296201204AE00020DE
:101460000221287069701F68A06840286FF30E176A
:1014700008BF102004D080280CBF4FF4804000200B
:101480000743E068226961691043E2690143A0698A
:10149000084347EAD007D20802F02002206A174327
:1014A000142247EA10171F6021687618B6FBF2F283
:1014B0009200AA62204600F08FFAA068802804BF3C
:1014C00000216160E96A20790860286B6A6B4260DC
:1014D000606838B1092805D2204600F0A2FA00F071
:1014E000ABF803E00021A963E9632964002101222C
:1014F000296200206A70F2BD1E68A068DFF86415DA
:10150000E2680E402169064360691643A2690E43F2
:10151000E1690643206A1643626A0E430643042AC1
:1015200003D1E16A206B01430E431E6023685A69B0
:10153000606AD20840EAC20204280ED1A66AE16AB3
:10154000324351B1A06900287FF46FAF002E18BF5D
:10155000022E3FF47CAFFFF472AF5A61204600F0D8
:1015600027FAA96A3F228A408260A3E7F8B50400FF
:1015700007D004F134056878022804D14FF40061E3
:1015800029620120F2BD2068DFF8D02440F2A94191
:1015900013188B4204D2066876087600066003E0D2
:1015A00007687F087F0007602368D2188A4214D238
:1015B00000201860226850602668B0602168C8600A
:1015C00023681861216821204861204600F0F0F965
:1015D000A96A3F228A40826012E0DFF88404C618BC
:1015E0008D2E0DD2002119602368596026680123D1
:1015F000B1602268D160A86ADFF86C1483400B6088
:10160000204600F0E9F9E86A20B1002101602A6B68
:10161000686B5060606830B1092804D2204600F041
:1016200000FA00F009F800210020A963E9632864AA
:10163000296269702870F2BDA96B00200860E86B10
:101640002A6C4260704738B530B100F134025178ED
:10165000022903D080201062012032BD0168DFF82A
:10166000FC4340F2A94365189D4206D20420507005
:101670000A68520852000A602EE00D6825F00E0537
:101680000D60016864189C4204D20B685B085B0023
:101690000B6003E00C68640864000C60D16A0124EC
:1016A000DFF8C4530B6823F480730B60916A8C409D
:1016B0002C60146B536B6360916B31B10B6823F436
:1016C00080730B60D46B116C616000230121137077
:1016D0005170D16901B18847002032BD2DE9FC4726
:1016E000044600200090DFF8901304F134050A68E6
:1016F0006F6A4FF41653B2FBF3F6DFF860A30821CC
:10170000D7F80080226840F2A9490AEB0200484558
:101710004FD2AB6A01FA03F318EA030F0DD0106839
:1017200040070AD5136823F004031360A86A8140B8
:10173000B960296A41F001012962A86ADFF8302303
:1017400002FA00F018EA000F0CD021680AEB01033E
:101750004B4553D249690A0604D5B860286A40F05F
:1017600002002862A86ADFF80C1301FA00F018EAF8
:10177000000F0CD021680AEB01024A45096806D225
:101780008B0704D5B860286A40F004002862A96A73
:10179000102202FA01F118EA010F4AD020680AEB80
:1017A000000300684B4534BF00F0080000F004005F
:1017B00026E0DFF8AC0283188D2B80F0F080A86A59
:1017C000DFF8A8321F68042606FA00FC17EA0C0F9F
:1017D00000F0AC8017687F0740F1A8801068810690
:1017E00003D4176827F00407176000F0DAF8E968F7
:1017F000002975D02046BDE8FC4708470868B1E7D6
:10180000B8B1B960206801684A0307D500680103D0
:101810000BD5696969B1204688470AE00168CA05A5
:1018200003D4036823F008030360E96809B1204684
:101830008847A96A202000FA01F118EA010F4DD06B
:1018400020680AEB000200684A4534BF00F010002F
:1018500000F00200002841D0B960206869780429AE
:1018600022D1026822F0160202602068436923F048
:1018700080034361E968002904BF6869002804D037
:101880002068016821F008010160A86A3F22002158
:1018900001238240BA6029706B70E96900291FD06A
:1018A0002046BDE8FC47084701684A0307D50068A1
:1018B00001030FD4296989B1204688470EE00168E9
:1018C000CA0507D40368012123F010030360002038
:1018D00028706970A96809B120468847286A0028DD
:1018E0005DD0296AC80754D504226A7020688244F2
:1018F000CA4516D201684908490001600099491C8F
:101900008E420091206802D30168CA07F6D40023F2
:101910002B700068C10759BF0120687003226A70EC
:1019200037E003685B085B000360E7E71F68022697
:1019300006FA00FC17EA0C0F15D01768BF0712D57E
:101940001068810607D41768002027F00A0717607F
:10195000012228706A7000F024F8A968F9B12046C5
:10196000BDE8FC4708471E6881400E4217D010684A
:10197000010714D51668012126F00E0616605A6874
:10198000A86A81400A435A6001232B620021297012
:101990006B70A96919B12046BDE8FC470847BDE84E
:1019A000F3875968A86A86400E435E60704700005E
:1019B00030B50168182300BF39A401F0FF02890A7D
:1019C0008902103AB2FBF3F2042AA55C28BF091D74
:1019D000C5658165084630BD30B5214C02680123DC
:1019E000A4188D2C02F0FF0109D208391422B1FB92
:1019F000F2F1224A224D02EB81028B400DE01039B8
:101A00001824B1FBF4F41F491F4D8A18A92A1F4A54
:101A100038BF083402EB8402A34083664566026641
:101A200030BD01790368002900D17047092910B53C
:101A300012D20B4AD3188D2B04D2154B154A03EB47
:101A4000810403E0144A02EB8104144A0123491E75
:101A50008B400267C466436710BD0000F0FFFDBF06
:101A6000F8ABFDA73F8010FE045402580054025802
:101A700001008000040080000C0000200058025883
:101A800080580258F0FBFDBF800802400008024069
:101A9000FC58025840590258FC08024040090240D4
:101AA00000061016000610160901020002D4304884
:101AB000815470472F4A00F00F00131803F8041CDC
:101AC00070472D4B4FF6FF021968000200F4E060EA
:101AD00011400843294908431860704738B5264B20
:101AE0001C68C4F30223C3F10704052C28BF042497
:101AF0001D1D072D34BF0023DB1E012505FA04F44C
:101B0000641E2140994005FA03F35B1E1A401143FD
:101B1000BDE83440C8E7010008D4012200F01F00EE
:101B200002FA00F0164B490943F821007047401EA5
:101B3000B0F1807F10B501D3012010BD114C0F21F1
:101B400060604FF0FF30FFF7AFFF00220721A26077
:101B50000020216010BD04280A4904D1086840F023
:101B60000400086070470A6822F004020A607047A7
:101B700000E400E018ED00E00CED00E00000FA05E4
:101B800000E100E010E000E000F000B87047000065
:101B90002DE9F84702460B46002478480F211D68BE
:101BA0000127A7403D40BD4240F0C5805E684FEA36
:101BB0008408022E18BF122E12D1E60802EB860C02
:101BC00008F01C0601FA06F9DCF820E0D3F810A0B2
:101BD0002EEA090E0AFA06F646EA0E06CCF820604E
:101BE000166893F804904FEA440C4FF0030E0EFA77
:101BF0000CFE6FEA0E0E0EEA060609F0030909FA5A
:101C00000CF949EA060616605E68012E18BF022E1E
:101C100003D0112E18BF122E12D19668D3F80C9053
:101C20000EEA060609FA0CF949EA060696605668B5
:101C300026EA07075E68C6F30016A64037435760DA
:101C4000D7680EEA07069F6807FA0CF73E43D6608E
:101C50005E68F6006FD50768DFF824C108F00C084D
:101C600001FA08FE47F002070760066806F0020660
:101C70000096009FA7085CF8276026EA0E0E414EEA
:101C8000B24208BF00262CD03F4EB24208BF012608
:101C900027D03E4EB24208BF022622D03C4EB2426E
:101CA00008BF03261DD03B4EB24208BF042618D001
:101CB000394EB24208BF052613D0384EB24208BF93
:101CC00006260ED0364EB24208BF072609D0354E42
:101CD000B24208BF082604D0334EB2420CBF0926D8
:101CE0000A2606FA08F646EA0E064CF82760DFF8E0
:101CF000BCC0DCF800706FEA05085E6808EA0707F8
:101D0000F60348BF2F4300F01CF8B60348BF2F432B
:101D1000CCF804704FF0B04CDCF800705E6808EA54
:101D20000707F60248BF2F4300F00BF8B60248BF82
:101D30002F43CCF80470641C0F2C7FF630AFBDE845
:101D4000F187CCF80070DCF804705E6808EA0707D9
:101D500070470069084018BF0120C0B270470AB13F
:101D60000183704741837047114A136803421CBFC7
:101D7000106001F011BA704700000000F4440258EE
:101D800008040058000002580004025800080258D5
:101D9000000C025800100258001402580018025893
:101DA000001C0258002002580024025880000058ED
:101DB00088000058002201F05FBB000004D10B88AE
:101DC0004FF6FE7003400B80002010BD10B511E0EF
:101DD00010B500F00BF800F027F804BF0C6A0442BD
:101DE00000F014F804BF0A6A0242E7E70446002242
:101DF0002068F6E004460422FFF7FAFF00F00EF830
:101E0000028842F001020280002010BD03D14B6C19
:101E100023F400434B640C6A144270472068416C01
:101E200041F4004141647047216841F2111240F2CF
:101E300044400B6A13427047F0B590F83C20012AE9
:101E400001D10220F0BD0123304A80F83C30046803
:101E500094421CBF2E4FBC426568A66803D14B68F4
:101E600025F470051D438A68096825F0700526F081
:101E7000800600230D4316436560A66080F83C3061
:101E80000020F0BD70B590F83C20012A01D102205D
:101E900070BD012380F83C30CD688A684C680B68BF
:101EA00025F44075154325F48065254325F4006528
:101EB0000A691D4325F480554B69154325F40055E7
:101EC0008A6A1D4325F480458B69154325F47025E6
:101ED00045EA034503680D4A93421CBF0C4CA342DC
:101EE0000CD125F470054E6A45EA0655CA69096A9F
:101EF00025F08075154325F000750D435D640022C3
:101F000080F83C20002070BD00000000000001406F
:101F1000000401402DE9F04190F83C7000260023B8
:101F200000240025012F08BF02204ED04FF0010CE5
:101F300080F83CC01768012F09D0022F0CD0042F65
:101F400010D0082F04BF4FF4807608240FE001263C
:101F50004FF4007309250AE0022601244FF4806340
:101F60000A2504E0042602244FF400630B2501290E
:101F70006FEA030C6FEA060E02D0022911D020E0AE
:101F80000168D1F860800EEA080ED2F8048008FAE1
:101F900004F42640082F46EA0E0600F018F80E66F4
:101FA0000FE00168D1F864800EEA080ED2F80480D0
:101FB00008FA04F42640082F46EA0E0600F007F857
:101FC0004E66002180F83C100020BDE8F08107D06B
:101FD00092680CEA060402FA05F52B4043EA04066F
:101FE000704730B5036A04248C4002FA01F1A34320
:101FF0000362056A2943016230BD00000220211DF1
:102000006870206800F0CFFA01206870002032BDAF
:1020100010B500F059F800F052F81CBFDFF8741149
:10202000884209D000F042F81FBFDFF86C319842B7
:10203000DFF86811884201D100F03CF800F0B1B837
:1020400038B500F046F800F05CF81CBFDFF84441FA
:10205000A14209D000F051F81FBFDFF83C3199428E
:10206000DFF83841A14206D10D6A154204BF0B6A60
:10207000034200F04FF80B6A134204BF0A6A02429F
:10208000FFE704D10B884FF6FE7003400B80002061
:1020900032BD38B5040001D1012032BD00F051F845
:1020A00018B900F04AF801F000FAA7E7DFF80021BC
:1020B00090427047426C42F400424264704720688C
:1020C000DFF8F0309842704704460122206800F0A3
:1020D00093BC04460022206800F08EBC2068C268D1
:1020E00042F0080270472068C26842F0040270475C
:1020F0002068C26842F002027047DFF8B450A9427B
:1021000070472168DFF8AC3040F2444041F21112D0
:102110009942704703D14C6C24F400444C647047DE
:1021200038B5040001D1012032BD00F00AF818B919
:1021300000F003F801F0BAF960E7002120462970A9
:10214000704704F13C056878704710B504460800F4
:102150000BD004290CD008290DD00C2901BF206810
:10216000C36843F01003C36008E0FFF7C1FF04E059
:10217000FFF7B9FF01E0FFF7B1FFC260206801225D
:1021800000F03AFC2068038843F00103038000203C
:1021900010BD00000004014000440140004801401F
:1021A0002068018841F001010180002010BD00007D
:1021B000004001400000014038B504462068016934
:1021C0008A0715D5C368990712D56FF0020201235B
:1021D00002612377806910F0030F204602D001F0DE
:1021E00026F803E001F063F900F092F80020207770
:1021F000206801694A0715D5C368590712D56FF0E1
:102200000402022302612377806910F4407F204694
:1022100002D001F00CF803E001F049F900F078F881
:1022200000202077206801690A0715D5C3681907BF
:1022300012D56FF00802042302612377C06910F001
:10224000030F204602D000F0F2FF03E001F02FF967
:1022500000F05EF80020207720680169CA0615D5D5
:10226000C368D90612D56FF01002082302612377E4
:10227000C06910F4407F204602D000F0D8FF03E090
:1022800001F015F900F044F800202077206801697A
:10229000CA0708D5C368D90705D56FF001020261E6
:1022A000204601F005F920686FF0800501690A06F3
:1022B00006D5C368190603D50561204600F0A5FFC1
:1022C00020680169CA0506D5C368190603D50561EA
:1022D000204600F09AFF206801694A0608D5C368C5
:1022E000590605D56FF040020261204601F0E1F881
:1022F000206801698A060AD5C368990607D56FF078
:10230000200202612046BDE8324001F0D3B831BD61
:10231000204601F0D0B838B500F13C042378012BF9
:1023200001D1022032BD01250223257063706AB1FC
:10233000042A0FD0082A11D00C2A13D0102A15D045
:10234000142A04BF006800F089FA12E0006800F067
:102350007DF90EE0006800F0BBF90AE0006800F0CB
:10236000F2F906E0006800F026FA02E0006800F0EA
:102370004BFA657000212170002032BDF8B500F0E5
:1023800083F801D10220F2BD01210220217060708A
:1023900082B9EB686A682968306800F08DFA3068A5
:1023A000816921F00C01816131688A69A868024362
:1023B0008A6166E0042A11D1EB686A68296830688E
:1023C00000F0BEFA3068816921F4406181613068B3
:1023D0008269A96842EA0122826152E0082AE9681A
:1023E0006A682B6827D13768090101F0F0011B02E8
:1023F00003F42063386A20F48070386207F11C000F
:10240000D0F800C0D7F820E04FEA9C0C42EA8C02DA
:1024100022F0F002114301602EF4206003433B627E
:102420003068C16921F00C01C1613168CA69A868CE
:102430000243CA6125E03068090301F470411B03BF
:1024400003F420431C30476827F48057476007682F
:10245000D0F804C027F4407747EA022727F47047F2
:10246000394301602CF420410B4343603068C1695B
:1024700021F44061C1613068C269A96842EA012261
:10248000C26100F008F8F2BD064606F13C0420786F
:102490000D46012870470120002160700020217046
:1024A000704710B500F13C021378012B01D10220D6
:1024B00010BD012402231470537000680023416191
:1024C00000205470137010BD38B500F066F801D1CB
:1024D000022032BD012202232270DFF8D40463708F
:1024E0002A689368034093600A68002A3CD0102A47
:1024F0003CD0202A3CD0302A3CD0402A30D0502A30
:1025000023D0602A25D0702A0CD0B2F5805F03D08A
:10251000B2F5005F11D031E029681A488D68054096
:102520008D602BE000F030F82968DFF888048A68B5
:10253000024042F077028A6020E000F025F8286827
:10254000816841F48041816018E000F022F8502158
:1025500011E0CA684968286800F00CFA60210AE0B6
:1025600000F017F8402106E0002104E0102102E00D
:10257000202100E03021286800F00EFAFFF78BFFE1
:1025800032BD0000F8FFFEFFCB684A688968286802
:1025900028E2CA6849682868C1E1054605F13C049B
:1025A0002078012870472DE9F043DFF80C84058876
:1025B0004045DFF80864DFF80874DFF808C4DFF886
:1025C00008E4DFF8083418BFB0F1804FDFF80044AA
:1025D000DFF8009407D0484518BFA04203D09842C6
:1025E00018BF70450DD14A6825F070051543404568
:1025F00018BFB0F1804F0CD048451CBFA042984294
:1026000007D0704518BF604503D0B84218BFB0422C
:1026100003D1CC6825F4407525434A694FF67F7392
:102620001D401543404505808C68C4620B6818BF87
:102630007045038504D060451CBFB842B04201D14B
:102640000969018601224261BDE8F0832DE9F0416C
:10265000026ADFF86483DFF870E3DFF87C43DFF8B9
:1026600064C3520852000262076A456886698A6834
:102670000B6827F002072640DFF8444317431E4348
:102680004045DFF8383318BF704504D060451CBFA3
:10269000A04298420DD1CA6827F008071743404569
:1026A00027F0040718BF704505D0604518BFA04249
:1026B00001D0984205D14B6925F440758A691D43C4
:1026C000154345608661496841630762BDE8F08152
:1026D000F0B5026A22F010020262056A436884695A
:1026E000DFF8F8220E6825F020058F681440DFF827
:1026F000D82244EA0624B04EB04245EA071518BF76
:10270000904208D125F08005CF6845EA0715B04210
:1027100025F040050AD090421CBFAA4A904205D03D
:10272000A74EB0421CBFA54FB84206D14E698A6978
:1027300023F44063164343EA860343608461496897
:1027400081630562F0BDF0B5026A22F48072026214
:10275000046A4568C3690A688E6824F4007423F02B
:10276000730344EA06241343934E974AB04218BFBA
:10277000904208D124F40064CF6844EA0724B042B0
:1027800024F480640AD090421CBF8E4A904205D047
:102790008B4EB0421CBF894FB84206D14E698A6940
:1027A00025F44055164345EA06154560C36149685E
:1027B000C1630462F0BDF0B5026A22F48052026285
:1027C000046A4268C3690D688E6824F4005423F4D7
:1027D000E64344EA063400F06AF81CBF7A4FB84278
:1027E00007D0784EB0421FBF754DA842734FB84214
:1027F00004D122F480424D6942EA85124260C361ED
:10280000496801640462F0BDF0B5026A6A4F22F4BF
:1028100080320262056A4368446D0A688E6825F456
:10282000003524F0700445EA06451443B8421CBF45
:10283000654A904207D0634EB0421FBF604FB84216
:102840005E4A904204D123F480334E6943EA062362
:1028500043604465496881650562F0BDF0B5026A70
:1028600022F480120262046A4268436D0D688E6829
:1028700024F4001423F4E04344EA065400F017F86B
:102880001CBF514FB84207D04E4EB0421FBF4C4DF7
:10289000A8424A4FB84204D122F400324D6942EABC
:1028A0008522426043654968C1650462F0BD43EA20
:1028B0000523414DA8427047F0B5046A3E4E6408B6
:1028C0006400B04204628469056A18BFB0F1804FA9
:1028D00011D0404FB8421CBF3D4EB0420BD03B4ED2
:1028E000B0421CBF384FB84205D03D4EB0421CBF6D
:1028F000344EB04203D1A40842EA840201E044F01D
:1029000001021B0122F0F00203F0F0031A4325F04C
:102910000A0501F00A01826129430162F0BD30B568
:10292000036A046A640864000462856923F00A0388
:10293000194325F0F00545EA02158561016230BDB5
:1029400030B5046A1B0303F47043090101F0A001D0
:1029500024F0100404628469056A24F4407444EA93
:10296000022425F0A005294324F470442343836105
:10297000016230BD10B5036A23F01003036283695E
:10298000046A23F4704343EA023324F0A004836111
:1029900044EA0114046210BD8368044A13401943D9
:1029A00041F0070181607047000000008FFFCFFFFA
:1029B0008800CEFF88FFCEFF0000014000480140A4
:1029C000004401400040014000040140000C004070
:1029D00000080040000400408CFFFEFFFF8CFFFE5B
:1029E0000018004010B5846824F47F44214311434B
:1029F00041EA0321816010BD30B5036A01248C4097
:102A000002FA01F1A3430362056A2943016230BD62
:102A10002DE9F84300F04CF802D2A068802804D1D8
:102A20004FF480703062012040E03078012808BF08
:102A300002203BD0012030707078012831D100F0A5
:102A40005AF800F047F8016821F01E0141F0160124
:102A500001602068426942F080024261F06820B162
:102A60002068016841F008010160F06A0268D10342
:102A700003D5036843F480730360B06B18B1016839
:102A800041F48071016020688044C84504D2026826
:102A900042F00102026008E0016841F001010160BA
:102AA00003E04FF40060012530622846BDE8F28360
:102AB000DFF81C80002540F2A9490446D4F800C084
:102AC00004F1340608EB0C00484570470000000094
:102AD000F0FFFDBFB06A3F2101FA00F0716A41F8D2
:102AE000080F336B726B5A60B06B10B1F06B316CC6
:102AF0004160206870470898022777703562DCF8DB
:102B0000007047F48027CCF8007027683B610346CB
:102B10002046FFE710B5046863608068402802D152
:102B2000A260E16010BDA160E26010BD002200F073
:102B3000C3BC000070B586B0DD4E00F042F800F076
:102B4000A6F800F038F968461421FFF733F9306829
:102B50004FF40073D74CD84D00F074F80591059AE6
:102B6000D649009301910021012204910292694605
:102B7000FFF70EF83068102340F480703060316841
:102B8000CF4801F4807100F065F8002201210A208D
:102B9000FEF7A4FF0A20FEF7BEFF30684FF4804224
:102BA00000F063F8002201211720FEF797FF17209D
:102BB000FEF7B1FF002201212820FEF78FFF282019
:102BC0003CE070B586B068461421B94EFFF7F2F8C4
:102BD00034680122B94B44F0400434603568B54C88
:102BE000204605F04005059505990092B24D0292E8
:102BF0000022019369460492FEF7CAFF00220121D8
:102C00000620FEF76BFF0620FEF785FF30680223E3
:102C100000F018F800F01EF8002201210720FEF74E
:102C20005DFF0720FEF777FF3068042200F01DF8F3
:102C3000002201210820FEF751FF0820FEF76BFF5C
:102C400006B070BD40F0400030603168204601F0B1
:102C5000400170470591059A0121009302910022DD
:102C6000019569460492FEF793BF012340F04000AE
:102C70003060316801F04001059105980021009213
:102C800004916946019520460293FEF781BF70B515
:102C900098B008A81421864DFFF78CF82C680822FC
:102CA000864B44F040042C602E68824C204606F08F
:102CB0004006009600990892099308A9FEF768FF5C
:102CC000002201210920FEF709FF0920FEF723FF5A
:102CD0002868202340F0400028602968204601F041
:102CE00040010091009A74490893099108A9FEF7E0
:102CF0004FFF03A81421FFF75DF829681023204631
:102D0000012441F0400129602A68012502F04002B7
:102D1000009200991222039301210492079103A9C2
:102D2000FEF736FF0DA82C21FFF744F86846002176
:102D30000022002380E80E000094624C02916A4653
:102D40000195022104F14000FFF7E4F84FF0807193
:102D5000002214910F2115924FF4804216910DA973
:102D6000179204F14000FFF78DF8206C0022C16833
:102D700041F08001C16001211820FEF7AFFE18204C
:102D8000FEF7C9FE002000F002F818B070BD4D49F2
:102D900001280A6C6FF48070536C0CBF43F0807391
:102DA00023F0807353640A6C1061086CC16841F0B1
:102DB0008001C160704778B58FB001A814213C4CE8
:102DC000FEF7F8FF256880223C4B3A4845F0400565
:102DD000256026683C4D06F0400600960099019259
:102DE000002201210293039101A90592FEF7D0FE72
:102DF00020684FF4807340F08000206021682846EE
:102E000001F080010091009A2B4901930291002169
:102E100001220591039201A9FEF7BAFE0AA8142126
:102E2000FEF7C8FF21684FF40073284641F0800187
:102E30002160226802F080020092009912220A9317
:102E400002210B920E910AA9FEF7A2FEA0680022B1
:102E500040F04000A060A1681C4C01F040010091CE
:102E600000981B4962604FF6FF702160E0602046C9
:102E7000A2602261A261FFF753F9002201200892AB
:102E8000022207900F2306920422099306A92046E6
:102E9000FFF774FA04212046FFF757F900220121B9
:102EA0002B20FEF71BFE2B20FEF735FE10B070BD69
:102EB000E0440258001802580000211100003111AE
:102EC00000200258C0020020001C0258C00300204D
:102ED00000180040B5EEC00BF1EE10FA02D4B1EECE
:102EE000C00B70476FF0004C20EE10CBAFF30080AA
:102EF0007047000051EC100B00B500F003F841ECF6
:102F0000100B00BD40F2FF7C0CEA115240F2FE3380
:102F1000D21A17DD352A1DDAB2F1150308DA6FEA85
:102F20004C53D34031EA5301C918994300207047EC
:102F30006FF00002DA4030EA5200801841F10001DF
:102F40009043704701F0004104BF41F07C5141F4CF
:102F5000700100207047000001484068704700BFC2
:102F60000000002038B52DED068B00F09DF8DFF84D
:102F7000E0140020086000F097F8DFF8D824136808
:102F800043F40033136000F08FF81067BFF34F8FE6
:102F9000D36EC3F34E34C3F3C90543F6E07000EAC1
:102FA000441040EA857008612846451E0028F4D187
:102FB0002046441E0028EED1BFF34F8F106840F426
:102FC0008030106000F070F800F0A6FA00F0EAF926
:102FD00000F0B0FAFDF7E1FAFDF72FFBFDF75BFB20
:102FE000FDF7A9FBFFF7A6FDDFF86C049FEDA09AA3
:102FF0000169DFED9B9A9FED9B8B9FED9CAA41F0B1
:1030000001010161026942F002020261016841F0BE
:1030100004010160026942F480320261016841F0FA
:103020004001016000F0D9FA012813D1B0EE4A0A3C
:10303000002000F065F8B0EE4A0A012000F060F8C8
:10304000B0EE4A0A022000F05BF8B0EE4A0A032014
:1030500000F056F800F0D3FA012803D100F043F84D
:1030600000F034F800F0E3FA012803D100F021F871
:1030700000F00DF800F0F6FA0128D3D100F033F893
:1030800000F024F800F015F800F001F8CAE7B0EEFF
:10309000C82BF0EE691A0320B0EE491AF0EE490A87
:1030A000B7EEC20BFDF74ABDBFF34F8FBFF36F8F73
:1030B0007047B0EEC82BF0EE691A0220B0EE491A44
:1030C000F0EE490AB7EEC20BFDF738BDB0EEC82BE3
:1030D000F0EE691A0120B0EE491AF0EE490AB7EE97
:1030E000C20BFDF72BBDB0EEC82BF0EE691A002025
:1030F000B0EE491AF0EE490AB7EEC20BFDF71EBD5D
:10310000DFF8583304212DE9F0410446342000FB58
:1031100004FCDFF84C832DED028BB0EE408A424672
:103120009C4401279CF8020090BB012C02D1202175
:1031300008270DE0022C4FF4007004D1DFF824239F
:103140000146802704E0032C04BF4FF4804107466A
:10315000C54D104605EB8406FEF7FBFD48B1394628
:103160004046FEF7F6FD20B101209FED8A0AB060CF
:1031700003E002219FED880AB160DFED3D0A20B235
:10318000F0EE481AB0EE601AFDF7D8FC0120285581
:10319000BDEC028BBDE8F08138B504460020FDF798
:1031A00067FC10B10020FDF723FC0120FDF760FC57
:1031B00010B10120FDF71CFC0220FDF759FC10B1F5
:1031C0000220FDF715FC0320FDF752FC10B103208F
:1031D000FDF70EFCA44D287818B12146002000F020
:1031E00049F8687818B12146012000F043F8A87822
:1031F00018B12146022000F03DF8E87820B12146C0
:103200000320BDE8344035E031BD80B502686FF47D
:10321000807101201161FDF72BFC38B10120FDF711
:10322000E7FB0020BDE80240FFF7B1BD01BD8F49BB
:10323000884200D0704780B5027F022A0FD1022059
:10324000FDF716FC10B10220FDF7D2FB8649887805
:1032500028B14FF6FF510220BDE804400AE001BD4D
:103260000000F042000000000040FF4000009643D4
:1032700000007A4470B5012904462DED028BB3EEAF
:103280000E8A6FF00045784E754812D0042927D079
:10329000082927D0202938D0802939D0B1F5007FDE
:1032A0004CD0B1F5804F68D04FF6FF52914241D0DB
:1032B0006DE021006BD10121FEF74BFD30B9B06804
:1032C000012864D100F06AF8002044E00020FDF7F6
:1032D0008FFBB06802284AD1B0EE480A204651E080
:1032E000200029E0012C52D10821FEF732FD28B937
:1032F000F06801284BD100F051F82CE00120FDF7D7
:1033000077FBF068022832D1E6E72046012813E077
:10331000022C3CD18021FEF71CFD30B93069012818
:1033200035D100F03BF8022015E00220FDF760FBEC
:103330003069E7E72046022822D028E0032C26D176
:103340004FF40071FEF705FD58B9706901281ED1D0
:1033500000F024F80320BDEC028BBDE87040FDF7BF
:103360004DBF0320FDF744FB70690228B4D0002153
:103370000122315533191A7109E02046032806D17C
:103380009FED320ABDEC028BBDE87040B8E6BDECA3
:10339000028B70BD000000CF0000004F2946B0EE48
:1033A000480A704718B59BB008A84C21FEF702FDEB
:1033B00068462021FEF7FEFC2D48046824F0040432
:1033C0000460C1688A04FCD502224FF48031119256
:1033D0000123129205220991A02113920222149135
:1033E0000821159208A816921792002208931891A6
:1033F00019921A9200F0BCFA3F2103220091082191
:1034000001924022039140210492002305914FF440
:1034100080620791022102936846069200F046F905
:1034200000F002FA13484FF47A720168B1FBF2F02F
:10343000FEF77DFB0420FEF78EFB002200214FF0FB
:10344000FF30FEF74BFB1CB010BD000000009643A0
:1034500050EF00E014ED00E03C10005CF0010020B3
:1034600000180258001C025850040020C00300201D
:103470000C4802580C00002000B500BF130096460F
:103480009446103928BFA0E80C50FAD85FEA417C76
:1034900028BF0CC048BF40F8042BC90728BF20F83C
:1034A000022B48BF00F8012B00BD704770477047E2
:1034B0007047704770477047401810F0030308D0FA
:1034C000C91A1FD3DB0748BF00F8012D28BF20F819
:1034D000022D130030B414461546103928BF20E9D8
:1034E0003C00FAD8490728BF20E90C0048BF40F843
:1034F000042D890028BF20F8022D48BF00F8012DB7
:1035000030BC7047C91818BF00F8012DCB0728BF81
:1035100000F8012D7047000080B50320FEF7D1FAB6
:10352000002000F049FC08B1012002BD00F064FC5D
:10353000002002BD38B586B068461421FEF73AFC7B
:103540005448046844F4807404600568524C05F4DF
:10355000807505950599026842F0040202600368CF
:1035600003F0040300F028F803F4807300F024F85B
:103570004FF48072204603F480730593059900236D
:1035800000920121019302916946FEF701FB4FF47D
:1035900000510022009101230192694602933F48A5
:1035A000FEF7F6FA4FF4806100F00EF84FF4006178
:1035B00000F00AF807B030BD05930599026842F49F
:1035C000807202600368704700220091012301921B
:1035D000694602932046FEF7DBBA10B52E4C00F088
:1035E0005FF850B900F03BF800F05AF828B900F045
:1035F00057F80028FBD0012010BD002010BD10B5E9
:10360000264C4FF4005100F04DF870B900F027F847
:103610004FF4005100F046F838B94FF4005100F073
:1036200041F80028F9D0012010BD002010BD10B5D0
:10363000194C4FF4806100F035F870B900F00FF8C4
:103640004FF4806100F02EF838B94FF4806100F03B
:1036500029F80028F9D0012010BD002010BD1E203F
:1036600000F006BC10B50C4C4FF4006100F01AF8E5
:1036700070B9FFF7F4FF4FF4006100F013F838B9A8
:103680004FF4006100F00EF80028F9D0012010BDC1
:10369000002010BDE04402580020025800080258E3
:1036A0004FF480712046FEF754BB00002DE9F8432B
:1036B0000546DFF8A0723868894600F007004845E3
:1036C00002D200F0A7F824D12878DFF884428107DD
:1036D00005D5A269E868120940EA0212A2612978B8
:1036E000CA0740F18380A369A86823F47063034389
:1036F000A3616868022802D121688A0308E00328D0
:1037000002D121688A0103E0012803D12168CA059A
:1037100003D473E02368590770D5226941F28938D0
:10372000D20840EAC2002061FFF716FC064668682E
:1037300002280BD1206900F03800102856D0FFF77E
:103740000BFC801B4045F5D303204DE003280AD134
:10375000206900F03800182848D0FFF7FDFB801BD7
:103760004045F5D3F0E701284AD1206900F0380040
:1037700008283BD0FFF7F0FB801B4045F5D3E3E77B
:103780002878410705D5A269286922F07002024312
:10379000A26129780A0705D5E369686923F07003F7
:1037A0000343E3612978CA0605D5E369A86923F4D0
:1037B000E0630343E36129788A0605D5236AE86953
:1037C00023F070030343236200F036F8A169DFF8A9
:1037D0008821DFF88831C1F30321515CC8401860AB
:1037E000002000F0E9FA0020BDE8F283386800F01C
:1037F00007008145C4D200F00DF8C1D00120F3E7E5
:10380000206910F0380FF1D0FFF7A6FB801B404570
:10381000F6D399E73968C90849EAC10139603A68BD
:1038200002F007024A4570474948016841F4002107
:10383000016070470000000030B5454A48481169F2
:1038400011F0380104D010290AD018290AD06EE0EE
:1038500013689C066CD51168C1F3C101C84030BD26
:10386000404830BD946A916AD56AC1F30513516B23
:1038700005F00105C1F3CC014D4314F0030400EE43
:10388000105AB8EE400A02D0022C27D028E0146863
:10389000DFED2E0A20EE200AA10608D51168C1F33B
:1038A000C101C840B0FBF3F000EE900A04E001460D
:1038B000B1FBF3F100EE901A106BF7EE001AF8EE80
:1038C000600AC0F3080001EE100AB8EE411A31EEAA
:1038D000000A70EE211A20EEA10A19E0214900E049
:1038E0002149106BDFED191AB1FBF3F100EE901ACC
:1038F000C0F30800F8EE600A01EE100AB8EE411AB3
:1039000000EE211AB7EE000A31EE000A20EE800A1E
:10391000106BC0F34620401C00EE900AF8EE600ADF
:1039200080EE200ABCEEC00A10EE100A30BD0E4830
:1039300030BD10B50D4C2068410504D500F0ACFA3F
:103940004FF48060606010BD00000000000000398E
:103950000044025800200052BC3F00080C00002028
:103960000090D00340787D0100093D006444025876
:10397000F8B50546DFF834442878C1074DD52269EB
:1039800002F03802102A09D0206900F03800182807
:1039900002BFA16A01F00301022908D12268910344
:1039A0003BD56868002840F00D810120F2BD6868B1
:1039B000B0F5803F0FD038B9216821F48031216003
:1039C000206820F4802009E0B0F5A02F08D12168FC
:1039D00041F480212160206840F48030206007E0BD
:1039E000226822F480322260216821F48021216043
:1039F000686868B1FFF7B0FA06462168880300F1ED
:103A0000E180FFF7A9FA801B6528F6D30320F2BDF9
:103A1000FFF7A2FA06462068810340F1D380FFF742
:103A20009BFA801B6528F6D3F0E7FFF795FA801B19
:103A30000328C0F0E680E9E7FFF78EFA801B032831
:103A4000C0F01981E2E7E86888B1216821F0190126
:103A500008432060FFF780FA06462068410700F11E
:103A6000D480FFF779FA801B0328F6D3CEE72068CD
:103A7000400840002060FFF76FFA064621684807BB
:103A800040F1CA80FFF768FA801B0328F6D3BDE730
:103A9000E86980B1216841F080012160FFF75CFA9C
:103AA00006462068C10500F1D180FFF755FA801B5A
:103AB0000328F6D3AAE7206820F080002060FFF7F3
:103AC0004BFA06462168C80540F1C780FFF744FA63
:103AD000801B0328F6D399E7606F400840006067B9
:103AE000FFF73AFA0646606F810740F1C880FFF79A
:103AF00033FA801B0328F6D388E7206820F480502F
:103B00002060FFF729FA06462168880440F1CE803C
:103B1000FFF722FA801B0328F6D377E7FFF71CFA9A
:103B2000801B6528C0F0CD8070E708B9206F09E0E0
:103B30000528206F06D140F004002067216F41F076
:103B4000010105E0400840002067216F21F00401D9
:103B50002167A86841F2893660B1FFF7FDF9074691
:103B6000206F810700F1BA80FFF7F6F9C01BB04261
:103B7000F6D34BE7FFF7F0F90746206F810740F1D6
:103B8000AD80FFF7E9F9C01BB042F6D33EE7FFF77F
:103B9000E3F9801B0328C0F0B48037E7FFF7DCF9B6
:103BA000401B0328C0F0FB8030E7FFF7D5F905463E
:103BB0002168880140F1F780FFF7CEF9401B032808
:103BC000F6D323E72878810726D5226912F0380F2B
:103BD00009D0206900F03800182804BFA16A11F04C
:103BE000030F7FF430AFE86821684A0701D5002849
:103BF0007BD0216821F0190108432060FFF7ACF960
:103C00000646206841077FF510AF6068296920F4F7
:103C10007C3040EA013060602878C1061DD52269F9
:103C200002F03802082A0AD0206900F0380018286B
:103C300002BFA16A01F0030101297FF429AF2068C6
:103C4000C10503D5EA69802A7FF4AFAE6068296AAE
:103C500020F0F84040EA816060602A7811070ED5B4
:103C6000686900283FF438AF616F41F00101616776
:103C7000FFF772F90646606F81077FF5DDAE2A789F
:103C8000930613D5A86900283FF437AF216841F4A3
:103C900080512160FFF760F906462068810405D451
:103CA000FFF75AF9801B0328F7D3AFE628784107BE
:103CB00014D53F4F3A6842F480723A60FFF74CF9EE
:103CC00006463868C1057FF529AFA86801287FF44A
:103CD0002CAF206F40F0010020673AE7686A0028A7
:103CE00061D0216901F0380118293FF45EAE022845
:103CF000206820F0807020607FF457AFFFF72CF928
:103D00000646216888013FF542AFA26AA86A2949A0
:103D1000EB6A0A40024342EA0312A262696B286B13
:103D2000AA6B491E4902401EC0F30800521E01F44E
:103D30007E4112040843E96B02F4FE021043491E5F
:103D4000090601F0FE4108432063606BA96C6FF324
:103D5000CF0040EAC1006063E26A286C22F00C02E6
:103D60000243E262E16A686C21F002010143E16210
:103D7000E16A41F48031E162E06A40F40030E062DF
:103D8000E16A41F48021E162E06A40F00100E06212
:103D9000216841F080712160FFF7DEF80546206858
:103DA00081017FF5FBAE0020F2BD00BF0044025848
:103DB000004802580CFCFFFF38B50D4D04462A7828
:103DC0000C4B18684FF47A71B1FBF2F2B0FBF2F0D1
:103DD000FDF7ADFE50B9102C08D2002221464FF05D
:103DE000FF30FDF77BFEAC60002032BD012032BD0C
:103DF000000000200C00002080B51C48016841F044
:103E000002010160006800F00200009000990320A8
:103E1000FDF757FE002200216FF00B00FDF75EFE5C
:103E2000002200216FF00A00FDF758FE0022002159
:103E30006FF00900FDF752FE002200216FF0040030
:103E4000FDF74CFE002200216FF00300FDF746FE57
:103E5000002200216FF00100FDF740FE002200214A
:103E60004FF0FF30BDE80840FDF738BEF44402587B
:103E700038B50446FFF770F814F1010F054602D07B
:103E8000044801786418FFF767F8401BA042FAD392
:103E900031BD00BF0000002070470000FFF749BDA2
:103EA000FEE7FEE7FEE7FEE770477047704780B524
:103EB00000F048F8BDE80140FDF766BE70471C48B9
:103EC000806AFDF70BBC1A48C06EFDF707BC1848A6
:103ED000D0F8A800FDF702BC1548D0F8E400FDF7C3
:103EE000FDBB0120FDF740BF0820FDF73DBF0220CC
:103EF000FDF73ABF0F48FEF75FB91020FDF734BF5A
:103F00000420FDF731BF80B52020FDF72DFF802074
:103F1000FDF72AFF4FF48070FDF726FF4FF4007085
:103F2000BDE80240FDF720BF0348FEF745B9000099
:103F3000C002002000030020C00300204FF4804096
:103F4000FDF712BF0248416802788A184260704744
:103F50000000002010B514480023016841F47001EE
:103F6000016012490A68124842F001020A60114ACF
:103F70000B610C68044000200C600F4C8B61CB611E
:103F80000B628862CB620B6348638B63CB6308640C
:103F90004B640B6823F480230B604FF000630866CA
:103FA00001211160236010BD88ED00E0004402583B
:103FB0007FEDF6EA0881005108ED00E00000000006
:103FC00001020304010203040607080930B450F893
:103FD000041B79B10268436802440830DC0744BF1F
:103FE000A9F10104E31852F8045B43F8045B091FCC
:103FF000F9D1ECE730BC704710B507497944183166
:10400000064C7C44163404E00A68081D11448847B5
:104010000146A142F8D110BD2C0000005400000060
:104020004EF68851CEF20001086840F47000086036
:10403000BFF34F8FBFF36F8F4FF00070E1EE100AA8
:10404000704700004FD3FFFF58040000100000200D
:1040500000000100000000240000000071FFFFFFCD
:1040600010000000640000000000002000000000BC
:1040700000F00DF8002801D0FFF7BEFFAFF300807D
:104080000020AFF30080FEF76DFF00F002F8012082
:10409000704700F001B800000746384600F002F80B
:1040A000FBE7000080B5AFF30080024A1100182042
:1040B000ABBEFBE7260002000148804701480047ED
:1040C000553F0008D9400008010000000000000032
:1040D000100000000090D003AFF30080FFF7A0FFB6
:1040E000FFF7C6FFFFF7FEBFFFF7FEBFFFF7FEBFFC
:1040F000FFF7FEBFFFF7FEBFFFF7FEBFFFF7FEBFF4
:10410000FFF7FEBFFFF7FEBFFFF7FEBFFFF7FEBFE3
:10411000FFF7FEBFFFF7FEBFFFF7FEBFFFF7FEBFD3
:10412000FFF7FEBFFFF7FEBFFFF7FEBFFFF7FEBFC3
:10413000FFF7FEBFFFF7FEBFFFF7FEBFFFF7FEBFB3
:10414000FFF7FEBFFFF7FEBFFFF7FEBFFFF7FEBFA3
:10415000FFF7FEBFFFF7FEBFFFF7FEBFFFF7FEBF93
:10416000FFF7FEBFFFF7FEBFFFF7FEBFFFF7FEBF83
:10417000FFF7FEBFFFF7FEBFFFF7FEBFFFF7FEBF73
:10418000FFF7FEBFFFF7FEBFFFF7FEBFFFF7FEBF63
:10419000FFF7FEBFFFF7FEBFFFF7FEBFFFF7FEBF53
:1041A000FFF7FEBFFFF7FEBFFFF7FEBFFFF7FEBF43
:1041B000FFF7FEBFFFF7FEBFFFF7FEBFFFF7FEBF33
:1041C000FFF7FEBFFFF7FEBFFFF7FEBFFFF7FEBF23
:1041D000FFF7FEBFFFF7FEBFFFF7FEBFFFF7FEBF13
:1041E000FFF7FEBFFFF7FEBFFFF7FEBFFFF7FEBF03
:1041F000FFF7FEBFFFF7FEBFFFF7FEBFFFF7FEBFF3
:10420000FFF7FEBFFFF7FEBFFFF7FEBFFFF7FEBFE2
:10421000FFF7FEBFFFF7FEBFFFF7FEBFFFF7FEBFD2
:10422000FFF7FEBFFFF7FEBFFFF7FEBFFFF7FEBFC2
:10423000FFF7FEBFFFF7FEBFFFF7FEBFFFF7FEBFB2
:10424000FFF7FEBFFFF7FEBFFFF7FEBFFFF7FEBFA2
:10425000FFF7FEBFFFF7FEBFFFF7FEBFFFF7FEBF92
:10426000FFF7FEBFFFF7FEBFFFF7FEBFFFF7FEBF82
:10427000FFF7FEBFFFF7FEBFFFF7FEBFFFF7FEBF72
:10428000FFF7FEBFFFF7FEBFFFF7FEBFFFF7FEBF62
:10429000FFF7FEBFFFF7FEBFFFF7FEBFFFF7FEBF52
:1042A000FFF7FEBFFFF7FEBFFFF7FEBFFFF7FEBF42
:1042B000FFF7FEBFFFF7FEBFFFF7FEBFFFF7FEBF32
:1042C000FFF7FEBFFFF7FEBFFFF7FEBFFFF7FEBF22
:0442D000FFF7FEBF37
:04000005080040D9D6
:00000001FF
